{
  "transactions": [
    {
      "hash": "0x11e80065747936bd179c1e9d990ae1e627b4f37a5f9078f70c156c5d3c231128",
      "transactionType": "CALL",
      "contractName": null,
      "contractAddress": "0x46dc0dcba70ffcbd50438cad9dcf04c0fa088888",
      "function": "setMinter(address)",
      "arguments": [
        "0xcE7Ced8db9D3628AC88896c93561610Fc31A7978"
      ],
      "transaction": {
        "from": "0x793448209ef713cae41437c7daa219b59bef1a4a",
        "to": "0x46dc0dcba70ffcbd50438cad9dcf04c0fa088888",
        "gas": "0xf040",
        "value": "0x0",
        "input": "0xfca3b5aa000000000000000000000000ce7ced8db9d3628ac88896c93561610fc31a7978",
        "nonce": "0x79",
        "chainId": "0x515"
      },
      "additionalContracts": [],
      "isFixedGasLimit": false
    }
  ],
  "receipts": [
    {
      "status": "0x1",
      "cumulativeGasUsed": "0x1597a",
      "logs": [],
      "logsBloom": "0x00000000000000000000000000000000000000000000000000000000000000000000000000000000000000000000000000000000000000000000000000000000000000000000000000000000000000000000000000000000000000000000000000000000000000000000000000000000000000000000000000000000000000000000000000000000000000000000000000000000000000000000000000000000000000000000000000000000000000000000000000000000000000000000000000000000000000000000000000000000000000000000000000000000000000000000000000000000000000000000000000000000000000000000000000000000",
      "type": "0x2",
      "transactionHash": "0x11e80065747936bd179c1e9d990ae1e627b4f37a5f9078f70c156c5d3c231128",
      "transactionIndex": "0x1",
      "blockHash": "0x7e3272dfb9b8dcd36a27a58f81a3d592f8f1eaf2e4e3d7d91b05bcc79002611c",
      "blockNumber": "0xd57dfc",
      "gasUsed": "0xadf0",
      "effectiveGasPrice": "0xf56c5",
      "from": "0x793448209ef713cae41437c7daa219b59bef1a4a",
      "to": "0x46dc0dcba70ffcbd50438cad9dcf04c0fa088888",
      "contractAddress": null,
      "l1BaseFeeScalar": "0x7d0",
      "l1BlobBaseFee": "0x147a10b",
      "l1BlobBaseFeeScalar": "0xdbba0",
      "l1Fee": "0x2095661da",
      "l1GasPrice": "0x7eec6d3f",
      "l1GasUsed": "0x640"
    }
  ],
  "libraries": [],
  "pending": [],
  "returns": {},
  "timestamp": 1740843851,
  "chain": 1301,
  "commit": "1722609"
}