{
  "transactions": [
    {
      "hash": "0xdd85a4f114fa7d070ba276a691cf402451e4deb686c22ae0c882459840ef4e8f",
      "transactionType": "CALL",
      "contractName": null,
      "contractAddress": "0xa47731d968203da5c37963af2e996006d4828888",
      "function": "setMinter(address)",
      "arguments": [
        "0xe247C4EA3BFbDB9944fAF40c54b592B130F5Dc45"
      ],
      "transaction": {
        "from": "0x793448209ef713cae41437c7daa219b59bef1a4a",
        "to": "0xa47731d968203da5c37963af2e996006d4828888",
        "gas": "0x93fc",
        "value": "0x0",
        "input": "0xfca3b5aa000000000000000000000000e247c4ea3bfbdb9944faf40c54b592b130f5dc45",
        "nonce": "0x73",
        "chainId": "0x515"
      },
      "additionalContracts": [],
      "isFixedGasLimit": false
    }
  ],
  "receipts": [
    {
      "status": "0x1",
      "cumulativeGasUsed": "0x116ae",
      "logs": [],
      "logsBloom": "0x00000000000000000000000000000000000000000000000000000000000000000000000000000000000000000000000000000000000000000000000000000000000000000000000000000000000000000000000000000000000000000000000000000000000000000000000000000000000000000000000000000000000000000000000000000000000000000000000000000000000000000000000000000000000000000000000000000000000000000000000000000000000000000000000000000000000000000000000000000000000000000000000000000000000000000000000000000000000000000000000000000000000000000000000000000000",
      "type": "0x2",
      "transactionHash": "0xdd85a4f114fa7d070ba276a691cf402451e4deb686c22ae0c882459840ef4e8f",
      "transactionIndex": "0x1",
      "blockHash": "0xb65ac2c6e0f83d5330aed6ddbef6ad0a23fd9895021371b43434b8b85055b1ce",
      "blockNumber": "0xd575cb",
      "gasUsed": "0x6b24",
      "effectiveGasPrice": "0xf6a4e",
      "from": "0x793448209ef713cae41437c7daa219b59bef1a4a",
      "to": "0xa47731d968203da5c37963af2e996006d4828888",
      "contractAddress": null,
      "l1BaseFeeScalar": "0x7d0",
      "l1BlobBaseFee": "0x5b0836b",
      "l1BlobBaseFeeScalar": "0xdbba0",
      "l1Fee": "0x33dfa1e34",
      "l1GasPrice": "0x6359b94f",
      "l1GasUsed": "0x640"
    }
  ],
  "libraries": [],
  "pending": [],
  "returns": {},
  "timestamp": 1740841754,
  "chain": 1301,
  "commit": "1722609"
}